:020000040800F2
:10000000F00600206D010008750100087701000866
:10001000790100087B0100087D0100080000000054
:100020000000000000000000000000007F01000848
:100030008101000800000000830100085D0800083D
:100040008701000887010008870100088701000870
:100050008701000887010008870100088701000860
:100060008701000887010008870100088701000850
:100070008701000887010008870100088701000840
:100080008701000887010008870100088701000830
:100090008701000887010008870100088701000820
:1000A0008701000887010008870100088701000810
:1000B0004D09000887010008870100088701000832
:1000C00087010008870100088701000887010008F0
:1000D00087010008870100088701000887010008E0
:1000E00087010008870100088701000800F002F876
:1000F00000F02CF80AA090E8000C82448344AAF196
:100100000107DA4501D100F021F8AFF2090EBAE893
:100110000F0013F0010F18BFFB1A43F0010318473B
:100120000C0C00001C0C00000023002400250026FD
:10013000103A28BF78C1FBD8520728BF30C148BF4A
:100140000B6070471FB51FBD10B510BD00F031F832
:100150001146FFF7F7FF00F03DFD00F04FF803B444
:10016000FFF7F2FF03BC00F057F800000948804792
:1001700009480047FEE7FEE7FEE7FEE7FEE7FEE789
:10018000FEE7FEE7FEE7FEE704480549054A064BA1
:10019000704700007D080008ED000008F000002016
:1001A000F0060020F0020020F002002070477047A7
:1001B0007047754600F02CF8AE4605006946534678
:1001C00020F00700854618B020B5FFF7DDFFBDE839
:1001D00020404FF000064FF000074FF000084FF0AE
:1001E000000BAC46ACE8C009ACE8C009ACE8C009FB
:1001F000ACE8C00921F007018D46704710B50446F0
:10020000AFF300802046BDE81040FFF7A8BF000014
:10021000004870470000002001491820ABBEFEE7EF
:10022000260002007047000088B007900691002069
:100230000590049003900290019000900698C07879
:1002400000F00F0005900698C078C006002806D57B
:10025000FFE706988178059808430590FFE7069820
:10026000007800284BD0FFE7079800680190002035
:100270000390FFE7039807283DD8FFE70399012083
:1002800088400290069800880299084004900498DB
:10029000029988422AD1FFE70398800002900299D0
:1002A0000F2088400090009901988843019005989C
:1002B000029900FA01F10198084301900698C0786C
:1002C000282806D1FFE70399012088400799486153
:1002D0000BE00698C078482806D1FFE70399012073
:1002E000884007990861FFE7FFE7FFE7FFE703980A
:1002F00001300390BEE7019807990860FFE7069870
:100300000088B0F5807F50DBFFE7079840680190D8
:1003100000200390FFE70398072842D8FFE70398DF
:1003200000F1080101208840029006980088029997
:10033000084004900498029988422DD1FFE7039861
:100340008000029002990F20884000900099019847
:10035000884301900598029900FA01F10198084339
:1003600001900698C078282808D1FFE7039800F18B
:1003700008010120884007994861FFE70698C07886
:10038000482808D1FFE7039800F1080101208840C0
:1003900007990861FFE7FFE7FFE703980130039043
:1003A000B9E7019807994860FFE708B07047000077
:1003B00082B00190ADF80210BDF8020001994861C9
:1003C00002B0704782B00190ADF80210BDF8020093
:1003D0000199086102B0704784B003900020029038
:1003E00001900F2000900398C078C0B3FFE74EF64D
:1003F0000C50CEF200000068C043C0F3022002900F
:100400000298C0F10400019000980299C840009041
:100410000398407801998840029003988078009969
:10042000014002980843029002980001029002984D
:10043000039909784EF20042CEF2000288540398E4
:10044000027802F01F01012088404EF20011CEF226
:10045000000141EAD20121F0030108600FE0039896
:10046000027802F01F01012088404EF28011CEF286
:10047000000141EAD20121F003010860FFE704B066
:100480007047000082B001908DF803109DF80300C2
:1004900048B1FFE7019A41F21C01C4F20201086869
:1004A0001043086008E0019A41F21C01C4F2020105
:1004B000086890430860FFE702B0704782B001907F
:1004C0008DF803109DF8030048B1FFE7019A41F24F
:1004D0001801C4F2020108681043086008E0019A9C
:1004E00041F21801C4F20201086890430860FFE776
:1004F00002B0704783B00290ADF80610ADF804204A
:1005000000208DF80300FFE79DF8030000EB400199
:1005100040F26400C2F2000050F8210030B1FFE761
:100520009DF8030001308DF80300EDE702999DF876
:10053000030000EB400240F26400C2F2000040F809
:100540002210BDF806104CF6CD42CCF6CC42A1FBF1
:100550000231C9089DF8033003EB430300EB83032A
:100560009980BDF80410A1FB0221C9089DF8032061
:1005700002EB420200EB8202D1809DF8031001EBF6
:10058000410100EB81010020087203B070470000B8
:1005900082B0019000200090FFE7009800EB40013E
:1005A00040F26400C2F2000050F821000199884234
:1005B00004D0FFE7009801300090EEE7009800EBD0
:1005C000400240F26401C2F20001002041F8220022
:1005D000009A02EB420201EB82021072009A02EBD7
:1005E000420201EB8202D080009A02EB420201EB50
:1005F0008201888002B0704780B582B000200190EF
:10060000FFE7019809283BDCFFE7019800EB400178
:1006100040F26400C2F2000000EB8100007A012881
:1006200029DBFFE7019800EB400140F26400C2F2D1
:100630000000009050F8210080470098019901EBDC
:10064000410100EB8102117A01391172019901EB2C
:10065000410100EB8100C08860B9FFE7019800EB21
:10066000400140F26400C2F2000050F82100FFF7A0
:100670008FFFFFE7FFE7FFE7019801300190C0E738
:1006800002B080BD81B000200090FFE700980928EB
:100690004BDCFFE7009800EB400140F26400C2F23F
:1006A000000050F82100D8B3FFE7009800EB4001AC
:1006B00040F26400C2F2000000EB8100808808BBB9
:1006C000FFE7009800EB400140F26400C2F2000036
:1006D00000EB8102117A01311172009901EB4101A5
:1006E00000EB8100C08860B1FFE7009800EB40019B
:1006F00040F26400C2F2000000EB8101C8888880EB
:10070000FFE70CE0009800EB400140F26400C2F209
:10071000000000EB8101888801388880FFE7FFE74F
:10072000FFE7009801300090B0E701B0704700008B
:1007300080B500F001F880BD84B0002003900290E5
:1007400041F20001C4F20201086840F48030086000
:10075000FFE741F20000C4F20200006800F400303C
:100760000290039801300390FFE702990020019066
:1007700039B9FFE70398B0F5A06018BF01200190D8
:10078000FFE70198C0070028E3D1FFE741F200002E
:10079000C4F2020000688003002803D5FFE70120AF
:1007A000029002E000200290FFE70298012851D158
:1007B000FFE742F20001C4F20201086840F01000B5
:1007C0000860086820F007000860086840F0020030
:1007D000086041F20401C4F2020100910868086057
:1007E00008680860086840F480600860086820F4C1
:1007F0007C100860086840F4E810086041F20001CD
:10080000C4F20201086840F080700860FFE741F21E
:100810000000C4F2020000688001002801D4FFE754
:10082000F5E741F20401C4F20201086820F0030078
:100830000860086840F002000860FFE741F2040029
:10084000C4F20200006800F00C00082801D0FFE7A5
:10085000F4E700E0FFE704B07047000040F2EC006E
:10086000C2F20000006840B1FFE740F2EC01C2F2C2
:100870000001086801380860FFE7704780B541F261
:100880000002C4F20202106840F00100106041F260
:100890000401C4F2020108680023CFF6FF031840E8
:1008A000086010684FF6FF73CFF6F66318401060CB
:1008B000106820F480201060086820F4FE000860B2
:1008C00041F20801C4F202014FF41F000860FFF773
:1008D0002FFF4EF60851CEF200014FF00060086085
:1008E00080BD000080B588B0012103910846FFF764
:1008F000C9FD41F61F40ADF814006320ADF81800A3
:1009000000200290ADF81A00ADF816004FF08040BC
:10091000019005A900F098F80198039A114600F09B
:1009200079F80198039900F031F8029903981C2294
:100930008DF810208DF811108DF812108DF813001D
:1009400004A8FFF749FD08B080BD000080B54FF056
:100950008040012100F030F850B1FFE700F0CAF903
:10096000FFF790FE4FF08040012100F003F8FFE711
:1009700080BD000082B00190ADF80210BDF8020009
:10098000C0430199088202B07047000082B0019014
:100990008DF803109DF8030030B1FFE70199088836
:1009A00040F00100088005E00199088820F001006E
:1009B0000880FFE702B0704783B00290ADF80610E0
:1009C00000208DF80500ADF80200ADF80000029897
:1009D000008ABDF806100840ADF802000298808930
:1009E000BDF806100840ADF80000BDF8020040B1A7
:1009F000FFE7BDF8000020B1FFE701208DF80500FA
:100A000003E000208DF80500FFE79DF8050003B026
:100A10007047000082B00190ADF802108DF80120FF
:100A20009DF8010038B1FFE7BDF8022001998889DF
:100A30001043888106E0BDF802200199888990431F
:100A40008881FFE702B0704783B0029001910020D7
:100A5000ADF8020002980088ADF80200029842F654
:100A60000041C4F20101884225D0FFE7029843F219
:100A70000041C4F2010188421DD0FFE70298B0F1A5
:100A8000804F18D0FFE7029840F20041C4F2000105
:100A9000884210D0FFE7029840F60001C4F200013E
:100AA000884208D0FFE7029840F60041C4F20001F6
:100AB00088420ED1FFE7BDF8020020F07000ADF8CB
:100AC000020001984188BDF802000843ADF8020019
:100AD000FFE7029841F20001C4F20001884216D0FB
:100AE000FFE7029841F20041C4F2000188420ED0B3
:100AF000FFE7BDF8020020F44070ADF80200019855
:100B0000C188BDF802000843ADF80200FFE7BDF858
:100B100002000299088001988088029988850198CE
:100B2000008802990885029842F60041C4F201014A
:100B3000884220D0FFE7029843F20041C4F201014D
:100B4000884218D0FFE7029844F20001C4F2010184
:100B5000884210D0FFE7029844F20041C4F201013C
:100B6000884208D0FFE7029844F60001C4F2010170
:100B7000884205D1FFE70198007A02990886FFE7CD
:100B800002990120888203B07047000080B540F2CE
:100B9000DC00C2F20000006848B9FFE741F2000043
:100BA000C4F201004FF40051FFF70CFC08E041F2E1
:100BB0000000C4F201004FF40051FFF7F9FBFFE71A
:100BC00040F2DC01C2F20001086880F00100086018
:100BD00080BD000080B588B000200790FFF782FE3E
:100BE0001020019001210091FFF768FC019840F26C
:100BF0006001C2F2000103914FF400520A80C870F4
:100C000002200290887041F20000C4F201000490BA
:100C1000FFF70AFB00990198FFF750FC019B029A2D
:100C2000039904984FF4804CCDF814C0A1F800C08B
:100C3000CB708A70FFF7F8FA4FF4FA70069000F064
:100C40003FF804980599FFF7BDFB069940F68D30F3
:100C5000C0F60000C822FFF74DFCFFE740F2E800B5
:100C6000C2F200000068012827D1FFE74FF47A7034
:100C700000F026F840F2E000C2F20000006848B937
:100C8000FFE741F20000C4F201004FF48041FFF79A
:100C900099FB08E041F20000C4F201004FF48041EA
:100CA000FFF786FBFFE740F2E001C2F200010868AF
:100CB000B0FA80F040090860FFE7FFF79DFCCDE740
:100CC00081B00090009846F26761C6F2666180FBD1
:100CD0000101881000EBD17040F2E401C2F2000182
:100CE000086040F2E801C2F200010020086001B093
:100CF0007047000040F2E400C2F2000000680128E2
:100D000013DBFFE740F2E400C2F2000001680139A2
:100D100001600068002807DCFFE740F2E801C2F24A
:100D2000000101200860FFE7FFE770473C0D000865
:0C0D300000000020F00600002801000870
:040000050800016D81
:00000001FF
