:020000040800F2
:10000000780600206D0100087501000877010008DE
:10001000790100087B0100087D0100080000000054
:100020000000000000000000000000007F01000848
:10003000810100080000000083010008210600087B
:100040008701000887010008870100088701000870
:100050008701000887010008870100088701000860
:100060008701000887010008870100088701000850
:100070008701000887010008870100088701000840
:100080008701000887010008870100088701000830
:100090008701000887010008870100088701000820
:1000A0008701000887010008870100088701000810
:1000B0001107000887010008870100088701000870
:1000C00087010008870100088701000887010008F0
:1000D00087010008870100088701000887010008E0
:1000E00087010008870100088701000800F002F876
:1000F00000F02CF80AA090E8000C82448344AAF196
:100100000107DA4501D100F021F8AFF2090EBAE893
:100110000F0013F0010F18BFFB1A43F0010318473B
:10012000500900006009000000230024002500267B
:10013000103A28BF78C1FBD8520728BF30C148BF4A
:100140000B6070471FB51FBD10B510BD00F031F832
:100150001146FFF7F7FF00F011FC00F04FF803B471
:10016000FFF7F2FF03BC00F057F800000948804792
:1001700009480047FEE7FEE7FEE7FEE7FEE7FEE789
:10018000FEE7FEE7FEE7FEE704480549054A064BA1
:100190007047000041060008ED00000878000020CC
:1001A000780600207802002078020020704770470F
:1001B0007047754600F02CF8AE4605006946534678
:1001C00020F00700854618B020B5FFF7DDFFBDE839
:1001D00020404FF000064FF000074FF000084FF0AE
:1001E000000BAC46ACE8C009ACE8C009ACE8C009FB
:1001F000ACE8C00921F007018D46704710B50446F0
:10020000AFF300802046BDE81040FFF7A8BF000014
:10021000004870470000002001491820ABBEFEE7EF
:10022000260002007047000088B007900691002069
:100230000590049003900290019000900698C07879
:1002400000F00F0005900698C078C006002806D57B
:10025000FFE706988178059808430590FFE7069820
:10026000007800284BD0FFE7079800680190002035
:100270000390FFE7039807283DD8FFE70399012083
:1002800088400290069800880299084004900498DB
:10029000029988422AD1FFE70398800002900299D0
:1002A0000F2088400090009901988843019005989C
:1002B000029900FA01F10198084301900698C0786C
:1002C000282806D1FFE70399012088400799486153
:1002D0000BE00698C078482806D1FFE70399012073
:1002E000884007990861FFE7FFE7FFE7FFE703980A
:1002F00001300390BEE7019807990860FFE7069870
:100300000088B0F5807F50DBFFE7079840680190D8
:1003100000200390FFE70398072842D8FFE70398DF
:1003200000F1080101208840029006980088029997
:10033000084004900498029988422DD1FFE7039861
:100340008000029002990F20884000900099019847
:10035000884301900598029900FA01F10198084339
:1003600001900698C078282808D1FFE7039800F18B
:1003700008010120884007994861FFE70698C07886
:10038000482808D1FFE7039800F1080101208840C0
:1003900007990861FFE7FFE7FFE703980130039043
:1003A000B9E7019807994860FFE708B07047000077
:1003B00082B00190ADF80210BDF8020001994861C9
:1003C00002B0704782B00190ADF80210BDF8020093
:1003D0000199086102B0704784B003900020029038
:1003E00001900F2000900398C078C0B3FFE74EF64D
:1003F0000C50CEF200000068C043C0F3022002900F
:100400000298C0F10400019000980299C840009041
:100410000398407801998840029003988078009969
:10042000014002980843029002980001029002984D
:10043000039909784EF20042CEF2000288540398E4
:10044000027802F01F01012088404EF20011CEF226
:10045000000141EAD20121F0030108600FE0039896
:10046000027802F01F01012088404EF28011CEF286
:10047000000141EAD20121F003010860FFE704B066
:100480007047000082B001908DF803109DF80300C2
:1004900048B1FFE7019A41F21C01C4F20201086869
:1004A0001043086008E0019A41F21C01C4F2020105
:1004B000086890430860FFE702B0704782B001907F
:1004C0008DF803109DF8030048B1FFE7019A41F24F
:1004D0001801C4F2020108681043086008E0019A9C
:1004E00041F21801C4F20201086890430860FFE776
:1004F00002B0704780B500F001F880BD84B00020E4
:100500000390029041F20001C4F20201086840F435
:1005100080300860FFE741F20000C4F2020000688A
:1005200000F400300290039801300390FFE7029935
:100530000020019039B9FFE70398B0F5A06018BF1B
:1005400001200190FFE70198C0070028E3D1FFE7F1
:1005500041F20000C4F2020000688003002803D5C5
:10056000FFE70120029002E000200290FFE70298DE
:10057000012851D1FFE742F20001C4F202010868EC
:1005800040F010000860086820F007000860086864
:1005900040F00200086041F20401C4F2020100913F
:1005A0000868086008680860086840F480600860AF
:1005B000086820F47C100860086840F4E8100860BF
:1005C00041F20001C4F20201086840F08070086046
:1005D000FFE741F20000C4F2020000688001002839
:1005E00001D4FFE7F5E741F20401C4F20201086813
:1005F00020F003000860086840F002000860FFE790
:1006000041F20400C4F20200006800F00C00082867
:1006100001D0FFE7F4E700E0FFE704B07047000017
:1006200040F27000C2F20000006840B1FFE740F203
:100630007001C2F20001086801380860FFE77047E6
:1006400080B541F20002C4F20202106840F00100DD
:10065000106041F20401C4F2020108680023CFF6E1
:10066000FF031840086010684FF6FF73CFF6F6637B
:1006700018401060106820F480201060086820F492
:10068000FE00086041F20801C4F202014FF41F00AD
:100690000860FFF72FFF4EF60851CEF200014FF031
:1006A0000060086080BD000080B588B00121039122
:1006B0000846FFF7E7FE41F61F40ADF8140063203F
:1006C000ADF8180000200290ADF81A00ADF8160041
:1006D0004FF08040019005A900F0AEF80198039A10
:1006E000114600F08FF80198039900F047F802993D
:1006F00003981C228DF810208DF811108DF812101F
:100700008DF8130004A8FFF767FE08B080BD000055
:1007100080B54FF08040012100F046F808B3FFE7B4
:1007200040F26800C2F200000068012813DBFFE716
:1007300040F26800C2F200000168013901600068FF
:10074000002807DCFFE740F26C01C2F20001012043
:100750000860FFE7FFE74FF08040012100F002F85A
:10076000FFE780BD82B00190ADF80210BDF8020035
:10077000C0430199088202B07047000082B0019026
:100780008DF803109DF8030030B1FFE70199088848
:1007900040F00100088005E00199088820F0010080
:1007A0000880FFE702B0704783B00290ADF80610F2
:1007B00000208DF80500ADF80200ADF800000298A9
:1007C000008ABDF806100840ADF802000298808942
:1007D000BDF806100840ADF80000BDF8020040B1B9
:1007E000FFE7BDF8000020B1FFE701208DF805000C
:1007F00003E000208DF80500FFE79DF8050003B039
:100800007047000082B00190ADF802108DF8012011
:100810009DF8010038B1FFE7BDF8022001998889F1
:100820001043888106E0BDF8022001998889904331
:100830008881FFE702B0704783B0029001910020E9
:10084000ADF8020002980088ADF80200029842F666
:100850000041C4F20101884225D0FFE7029843F22B
:100860000041C4F2010188421DD0FFE70298B0F1B7
:10087000804F18D0FFE7029840F20041C4F2000117
:10088000884210D0FFE7029840F60001C4F2000150
:10089000884208D0FFE7029840F60041C4F2000108
:1008A00088420ED1FFE7BDF8020020F07000ADF8DD
:1008B000020001984188BDF802000843ADF802002B
:1008C000FFE7029841F20001C4F20001884216D00D
:1008D000FFE7029841F20041C4F2000188420ED0C5
:1008E000FFE7BDF8020020F44070ADF80200019867
:1008F000C188BDF802000843ADF80200FFE7BDF86B
:1009000002000299088001988088029988850198E0
:10091000008802990885029842F60041C4F201015C
:10092000884220D0FFE7029843F20041C4F201015F
:10093000884218D0FFE7029844F20001C4F2010196
:10094000884210D0FFE7029844F20041C4F201014E
:10095000884208D0FFE7029844F60001C4F2010182
:10096000884205D1FFE70198007A02990886FFE7DF
:1009700002990120888203B07047000080B588B0DA
:1009800000200790FFF790FE1020029001210191B6
:10099000FFF794FD029840F26001C2F20001049159
:1009A0004FF400520A80C87002200390887041F210
:1009B0000000C4F201000590FFF736FC019902988F
:1009C000FFF77CFD029B039A049905984FF4804C35
:1009D000CDF818C0A1F800C0CB708A70FFF724FCD6
:1009E000322000F035F805980699FFF7EBFCFFE799
:1009F00040F26C00C2F200000068012826D1FFE737
:100A0000322000F025F840F26400C2F200000068D5
:100A100048B9FFE741F20000C4F201004FF4804101
:100A2000FFF7D0FC08E041F20000C4F201004FF4EF
:100A30008041FFF7BDFCFFE740F26401C2F2000114
:100A40000868B0FA80F040090860FFE7D0E70000CE
:100A500081B0009040F26C01C2F2000100200860F9
:100A6000009840F26801C2F20001086001B07047CE
:100A7000800A000800000020780600002801000815
:040000050800016D81
:00000001FF
